{
  "_format": "hh-sol-artifact-1",
  "contractName": "TrustEscrow",
  "sourceName": "contracts/TrustEscrow.sol",
  "abi": [
    {
      "inputs": [
        {
          "internalType": "address",
          "name": "_platformWallet",
          "type": "address"
        }
      ],
      "stateMutability": "nonpayable",
      "type": "constructor"
    },
    {
      "anonymous": false,
      "inputs": [
        {
          "indexed": true,
          "internalType": "address",
          "name": "owner",
          "type": "address"
        },
        {
          "indexed": true,
          "internalType": "address",
          "name": "approved",
          "type": "address"
        },
        {
          "indexed": true,
          "internalType": "uint256",
          "name": "tokenId",
          "type": "uint256"
        }
      ],
      "name": "Approval",
      "type": "event"
    },
    {
      "anonymous": false,
      "inputs": [
        {
          "indexed": true,
          "internalType": "address",
          "name": "owner",
          "type": "address"
        },
        {
          "indexed": true,
          "internalType": "address",
          "name": "operator",
          "type": "address"
        },
        {
          "indexed": false,
          "internalType": "bool",
          "name": "approved",
          "type": "bool"
        }
      ],
      "name": "ApprovalForAll",
      "type": "event"
    },
    {
      "anonymous": false,
      "inputs": [
        {
          "indexed": false,
          "internalType": "uint256",
          "name": "_fromTokenId",
          "type": "uint256"
        },
        {
          "indexed": false,
          "internalType": "uint256",
          "name": "_toTokenId",
          "type": "uint256"
        }
      ],
      "name": "BatchMetadataUpdate",
      "type": "event"
    },
    {
      "anonymous": false,
      "inputs": [
        {
          "indexed": true,
          "internalType": "uint256",
          "name": "jobId",
          "type": "uint256"
        },
        {
          "indexed": true,
          "internalType": "address",
          "name": "opener",
          "type": "address"
        }
      ],
      "name": "DisputeOpened",
      "type": "event"
    },
    {
      "anonymous": false,
      "inputs": [
        {
          "indexed": true,
          "internalType": "uint256",
          "name": "jobId",
          "type": "uint256"
        },
        {
          "indexed": false,
          "internalType": "address",
          "name": "winner",
          "type": "address"
        }
      ],
      "name": "DisputeResolved",
      "type": "event"
    },
    {
      "anonymous": false,
      "inputs": [
        {
          "indexed": true,
          "internalType": "uint256",
          "name": "jobId",
          "type": "uint256"
        },
        {
          "indexed": true,
          "internalType": "address",
          "name": "freelancer",
          "type": "address"
        }
      ],
      "name": "FreelancerAccepted",
      "type": "event"
    },
    {
      "anonymous": false,
      "inputs": [
        {
          "indexed": true,
          "internalType": "uint256",
          "name": "jobId",
          "type": "uint256"
        },
        {
          "indexed": true,
          "internalType": "address",
          "name": "freelancer",
          "type": "address"
        },
        {
          "indexed": false,
          "internalType": "uint256",
          "name": "amount",
          "type": "uint256"
        }
      ],
      "name": "FundsReleased",
      "type": "event"
    },
    {
      "anonymous": false,
      "inputs": [
        {
          "indexed": true,
          "internalType": "uint256",
          "name": "jobId",
          "type": "uint256"
        }
      ],
      "name": "JobCancelled",
      "type": "event"
    },
    {
      "anonymous": false,
      "inputs": [
        {
          "indexed": true,
          "internalType": "uint256",
          "name": "jobId",
          "type": "uint256"
        },
        {
          "indexed": true,
          "internalType": "address",
          "name": "client",
          "type": "address"
        },
        {
          "indexed": false,
          "internalType": "string",
          "name": "title",
          "type": "string"
        },
        {
          "indexed": false,
          "internalType": "uint256",
          "name": "amount",
          "type": "uint256"
        }
      ],
      "name": "JobCreated",
      "type": "event"
    },
    {
      "anonymous": false,
      "inputs": [
        {
          "indexed": false,
          "internalType": "uint256",
          "name": "_tokenId",
          "type": "uint256"
        }
      ],
      "name": "MetadataUpdate",
      "type": "event"
    },
    {
      "anonymous": false,
      "inputs": [
        {
          "indexed": true,
          "internalType": "uint256",
          "name": "jobId",
          "type": "uint256"
        },
        {
          "indexed": false,
          "internalType": "uint256",
          "name": "milestoneIndex",
          "type": "uint256"
        },
        {
          "indexed": false,
          "internalType": "uint256",
          "name": "amount",
          "type": "uint256"
        }
      ],
      "name": "MilestoneApproved",
      "type": "event"
    },
    {
      "anonymous": false,
      "inputs": [
        {
          "indexed": true,
          "internalType": "uint256",
          "name": "tokenId",
          "type": "uint256"
        },
        {
          "indexed": true,
          "internalType": "uint256",
          "name": "jobId",
          "type": "uint256"
        },
        {
          "indexed": true,
          "internalType": "address",
          "name": "freelancer",
          "type": "address"
        },
        {
          "indexed": false,
          "internalType": "string",
          "name": "ipfsCid",
          "type": "string"
        }
      ],
      "name": "ReputationNFTMinted",
      "type": "event"
    },
    {
      "anonymous": false,
      "inputs": [
        {
          "indexed": true,
          "internalType": "address",
          "name": "from",
          "type": "address"
        },
        {
          "indexed": true,
          "internalType": "address",
          "name": "to",
          "type": "address"
        },
        {
          "indexed": true,
          "internalType": "uint256",
          "name": "tokenId",
          "type": "uint256"
        }
      ],
      "name": "Transfer",
      "type": "event"
    },
    {
      "inputs": [],
      "name": "DISPUTE_WINDOW",
      "outputs": [
        {
          "internalType": "uint256",
          "name": "",
          "type": "uint256"
        }
      ],
      "stateMutability": "view",
      "type": "function"
    },
    {
      "inputs": [],
      "name": "PLATFORM_FEE_BPS",
      "outputs": [
        {
          "internalType": "uint256",
          "name": "",
          "type": "uint256"
        }
      ],
      "stateMutability": "view",
      "type": "function"
    },
    {
      "inputs": [
        {
          "internalType": "uint256",
          "name": "jobId",
          "type": "uint256"
        }
      ],
      "name": "acceptJob",
      "outputs": [],
      "stateMutability": "nonpayable",
      "type": "function"
    },
    {
      "inputs": [
        {
          "internalType": "address",
          "name": "to",
          "type": "address"
        },
        {
          "internalType": "uint256",
          "name": "tokenId",
          "type": "uint256"
        }
      ],
      "name": "approve",
      "outputs": [],
      "stateMutability": "nonpayable",
      "type": "function"
    },
    {
      "inputs": [
        {
          "internalType": "uint256",
          "name": "jobId",
          "type": "uint256"
        },
        {
          "internalType": "uint256",
          "name": "milestoneIndex",
          "type": "uint256"
        },
        {
          "internalType": "string",
          "name": "nftIpfsCid",
          "type": "string"
        }
      ],
      "name": "approveMilestone",
      "outputs": [],
      "stateMutability": "nonpayable",
      "type": "function"
    },
    {
      "inputs": [
        {
          "internalType": "address",
          "name": "owner",
          "type": "address"
        }
      ],
      "name": "balanceOf",
      "outputs": [
        {
          "internalType": "uint256",
          "name": "",
          "type": "uint256"
        }
      ],
      "stateMutability": "view",
      "type": "function"
    },
    {
      "inputs": [
        {
          "internalType": "uint256",
          "name": "jobId",
          "type": "uint256"
        }
      ],
      "name": "cancelOpenJob",
      "outputs": [],
      "stateMutability": "nonpayable",
      "type": "function"
    },
    {
      "inputs": [
        {
          "internalType": "address",
          "name": "",
          "type": "address"
        },
        {
          "internalType": "uint256",
          "name": "",
          "type": "uint256"
        }
      ],
      "name": "completedJobs",
      "outputs": [
        {
          "internalType": "uint256",
          "name": "",
          "type": "uint256"
        }
      ],
      "stateMutability": "view",
      "type": "function"
    },
    {
      "inputs": [
        {
          "internalType": "string",
          "name": "title",
          "type": "string"
        },
        {
          "internalType": "string",
          "name": "ipfsCid",
          "type": "string"
        },
        {
          "internalType": "string[]",
          "name": "milestoneDescs",
          "type": "string[]"
        },
        {
          "internalType": "uint256[]",
          "name": "milestoneAmts",
          "type": "uint256[]"
        }
      ],
      "name": "createJob",
      "outputs": [
        {
          "internalType": "uint256",
          "name": "jobId",
          "type": "uint256"
        }
      ],
      "stateMutability": "payable",
      "type": "function"
    },
    {
      "inputs": [
        {
          "internalType": "uint256",
          "name": "tokenId",
          "type": "uint256"
        }
      ],
      "name": "getApproved",
      "outputs": [
        {
          "internalType": "address",
          "name": "",
          "type": "address"
        }
      ],
      "stateMutability": "view",
      "type": "function"
    },
    {
      "inputs": [
        {
          "internalType": "uint256",
          "name": "jobId",
          "type": "uint256"
        }
      ],
      "name": "getJob",
      "outputs": [
        {
          "internalType": "address",
          "name": "client",
          "type": "address"
        },
        {
          "internalType": "address",
          "name": "freelancer",
          "type": "address"
        },
        {
          "internalType": "string",
          "name": "title",
          "type": "string"
        },
        {
          "internalType": "string",
          "name": "ipfsCid",
          "type": "string"
        },
        {
          "internalType": "uint256",
          "name": "totalAmount",
          "type": "uint256"
        },
        {
          "internalType": "enum TrustEscrow.JobStatus",
          "name": "status",
          "type": "uint8"
        },
        {
          "internalType": "uint256",
          "name": "milestoneCount",
          "type": "uint256"
        }
      ],
      "stateMutability": "view",
      "type": "function"
    },
    {
      "inputs": [
        {
          "internalType": "uint256",
          "name": "jobId",
          "type": "uint256"
        },
        {
          "internalType": "uint256",
          "name": "idx",
          "type": "uint256"
        }
      ],
      "name": "getMilestone",
      "outputs": [
        {
          "internalType": "string",
          "name": "description",
          "type": "string"
        },
        {
          "internalType": "uint256",
          "name": "amount",
          "type": "uint256"
        },
        {
          "internalType": "bool",
          "name": "approved",
          "type": "bool"
        },
        {
          "internalType": "bool",
          "name": "released",
          "type": "bool"
        }
      ],
      "stateMutability": "view",
      "type": "function"
    },
    {
      "inputs": [
        {
          "internalType": "address",
          "name": "wallet",
          "type": "address"
        }
      ],
      "name": "getReputation",
      "outputs": [
        {
          "internalType": "uint256",
          "name": "score",
          "type": "uint256"
        },
        {
          "internalType": "uint256",
          "name": "jobsCompleted",
          "type": "uint256"
        }
      ],
      "stateMutability": "view",
      "type": "function"
    },
    {
      "inputs": [
        {
          "internalType": "address",
          "name": "owner",
          "type": "address"
        },
        {
          "internalType": "address",
          "name": "operator",
          "type": "address"
        }
      ],
      "name": "isApprovedForAll",
      "outputs": [
        {
          "internalType": "bool",
          "name": "",
          "type": "bool"
        }
      ],
      "stateMutability": "view",
      "type": "function"
    },
    {
      "inputs": [
        {
          "internalType": "uint256",
          "name": "",
          "type": "uint256"
        }
      ],
      "name": "jobs",
      "outputs": [
        {
          "internalType": "uint256",
          "name": "id",
          "type": "uint256"
        },
        {
          "internalType": "address",
          "name": "client",
          "type": "address"
        },
        {
          "internalType": "address",
          "name": "freelancer",
          "type": "address"
        },
        {
          "internalType": "string",
          "name": "title",
          "type": "string"
        },
        {
          "internalType": "string",
          "name": "ipfsMetadataHash",
          "type": "string"
        },
        {
          "internalType": "uint256",
          "name": "totalAmount",
          "type": "uint256"
        },
        {
          "internalType": "uint256",
          "name": "depositedAmount",
          "type": "uint256"
        },
        {
          "internalType": "enum TrustEscrow.JobStatus",
          "name": "status",
          "type": "uint8"
        },
        {
          "internalType": "uint256",
          "name": "createdAt",
          "type": "uint256"
        },
        {
          "internalType": "uint256",
          "name": "disputeDeadline",
          "type": "uint256"
        }
      ],
      "stateMutability": "view",
      "type": "function"
    },
    {
      "inputs": [],
      "name": "name",
      "outputs": [
        {
          "internalType": "string",
          "name": "",
          "type": "string"
        }
      ],
      "stateMutability": "view",
      "type": "function"
    },
    {
      "inputs": [
        {
          "internalType": "uint256",
          "name": "",
          "type": "uint256"
        }
      ],
      "name": "nftToJob",
      "outputs": [
        {
          "internalType": "uint256",
          "name": "",
          "type": "uint256"
        }
      ],
      "stateMutability": "view",
      "type": "function"
    },
    {
      "inputs": [
        {
          "internalType": "uint256",
          "name": "jobId",
          "type": "uint256"
        }
      ],
      "name": "openDispute",
      "outputs": [],
      "stateMutability": "nonpayable",
      "type": "function"
    },
    {
      "inputs": [
        {
          "internalType": "uint256",
          "name": "tokenId",
          "type": "uint256"
        }
      ],
      "name": "ownerOf",
      "outputs": [
        {
          "internalType": "address",
          "name": "",
          "type": "address"
        }
      ],
      "stateMutability": "view",
      "type": "function"
    },
    {
      "inputs": [],
      "name": "platformWallet",
      "outputs": [
        {
          "internalType": "address",
          "name": "",
          "type": "address"
        }
      ],
      "stateMutability": "view",
      "type": "function"
    },
    {
      "inputs": [
        {
          "internalType": "address",
          "name": "",
          "type": "address"
        }
      ],
      "name": "reputationScore",
      "outputs": [
        {
          "internalType": "uint256",
          "name": "",
          "type": "uint256"
        }
      ],
      "stateMutability": "view",
      "type": "function"
    },
    {
      "inputs": [
        {
          "internalType": "uint256",
          "name": "jobId",
          "type": "uint256"
        }
      ],
      "name": "resolveDisputeByTimeout",
      "outputs": [],
      "stateMutability": "nonpayable",
      "type": "function"
    },
    {
      "inputs": [
        {
          "internalType": "address",
          "name": "from",
          "type": "address"
        },
        {
          "internalType": "address",
          "name": "to",
          "type": "address"
        },
        {
          "internalType": "uint256",
          "name": "tokenId",
          "type": "uint256"
        }
      ],
      "name": "safeTransferFrom",
      "outputs": [],
      "stateMutability": "nonpayable",
      "type": "function"
    },
    {
      "inputs": [
        {
          "internalType": "address",
          "name": "from",
          "type": "address"
        },
        {
          "internalType": "address",
          "name": "to",
          "type": "address"
        },
        {
          "internalType": "uint256",
          "name": "tokenId",
          "type": "uint256"
        },
        {
          "internalType": "bytes",
          "name": "data",
          "type": "bytes"
        }
      ],
      "name": "safeTransferFrom",
      "outputs": [],
      "stateMutability": "nonpayable",
      "type": "function"
    },
    {
      "inputs": [
        {
          "internalType": "address",
          "name": "operator",
          "type": "address"
        },
        {
          "internalType": "bool",
          "name": "approved",
          "type": "bool"
        }
      ],
      "name": "setApprovalForAll",
      "outputs": [],
      "stateMutability": "nonpayable",
      "type": "function"
    },
    {
      "inputs": [
        {
          "internalType": "bytes4",
          "name": "interfaceId",
          "type": "bytes4"
        }
      ],
      "name": "supportsInterface",
      "outputs": [
        {
          "internalType": "bool",
          "name": "",
          "type": "bool"
        }
      ],
      "stateMutability": "view",
      "type": "function"
    },
    {
      "inputs": [],
      "name": "symbol",
      "outputs": [
        {
          "internalType": "string",
          "name": "",
          "type": "string"
        }
      ],
      "stateMutability": "view",
      "type": "function"
    },
    {
      "inputs": [
        {
          "internalType": "uint256",
          "name": "tokenId",
          "type": "uint256"
        }
      ],
      "name": "tokenURI",
      "outputs": [
        {
          "internalType": "string",
          "name": "",
          "type": "string"
        }
      ],
      "stateMutability": "view",
      "type": "function"
    },
    {
      "inputs": [],
      "name": "totalJobs",
      "outputs": [
        {
          "internalType": "uint256",
          "name": "",
          "type": "uint256"
        }
      ],
      "stateMutability": "view",
      "type": "function"
    },
    {
      "inputs": [
        {
          "internalType": "address",
          "name": "from",
          "type": "address"
        },
        {
          "internalType": "address",
          "name": "to",
          "type": "address"
        },
        {
          "internalType": "uint256",
          "name": "tokenId",
          "type": "uint256"
        }
      ],
      "name": "transferFrom",
      "outputs": [],
      "stateMutability": "nonpayable",
      "type": "function"
    }
  ],
  "bytecode": "0x60a06040523480156200001157600080fd5b50604051620034d2380380620034d28339810160408190526200003491620000c1565b6040518060400160405280601681526020017f5472757374457363726f772052657075746174696f6e00000000000000000000815250604051806040016040528060048152602001630545245560e41b815250816000908162000098919062000198565b506001620000a7828262000198565b50506001600755506001600160a01b031660805262000264565b600060208284031215620000d457600080fd5b81516001600160a01b0381168114620000ec57600080fd5b9392505050565b634e487b7160e01b600052604160045260246000fd5b600181811c908216806200011e57607f821691505b6020821081036200013f57634e487b7160e01b600052602260045260246000fd5b50919050565b601f8211156200019357600081815260208120601f850160051c810160208610156200016e5750805b601f850160051c820191505b818110156200018f578281556001016200017a565b5050505b505050565b81516001600160401b03811115620001b457620001b4620000f3565b620001cc81620001c5845462000109565b8462000145565b602080601f831160018114620002045760008415620001eb5750858301515b600019600386901b1c1916600185901b1785556200018f565b600085815260208120601f198616915b82811015620002355788860151825594840194600190910190840162000214565b5085821015620002545787850151600019600388901b60f8161c191681555b5050505050600190811b01905550565b60805161324b62000287600039600081816106170152611140015261324b6000f3fe6080604052600436106101cd5760003560e01c80636352211e116100f7578063a22cb46511610095578063e985e9c511610064578063e985e9c5146105ae578063f585dc57146105ce578063f6c6b70e146105e5578063fa2af9da1461060557600080fd5b8063a22cb4651461051b578063b88d4fde1461053b578063bf22c4571461055b578063c87b56dd1461058e57600080fd5b80638ed9895c116100d15780638ed9895c1461045e57806395d89b411461048e5780639c89a0e2146104a3578063a0865828146104fb57600080fd5b80636352211e146103fe57806363b2f3c91461041e57806370a082311461043e57600080fd5b806327d00fb01161016f57806350d061cb1161013e57806350d061cb1461036f57806351da2cad1461039c578063539aa77f146103c95780635b83831e146103de57600080fd5b806327d00fb0146102fc578063284329571461031c57806342842e0e1461032f5780634301cb1c1461034f57600080fd5b8063095ea7b3116101ab578063095ea7b314610261578063180aedf3146102835780631ace87b3146102b957806323b872dd146102dc57600080fd5b806301ffc9a7146101d257806306fdde0314610207578063081812fc14610229575b600080fd5b3480156101de57600080fd5b506101f26101ed3660046127a2565b610639565b60405190151581526020015b60405180910390f35b34801561021357600080fd5b5061021c610664565b6040516101fe919061280f565b34801561023557600080fd5b50610249610244366004612822565b6106f6565b6040516001600160a01b0390911681526020016101fe565b34801561026d57600080fd5b5061028161027c366004612857565b61071d565b005b34801561028f57600080fd5b506102a361029e366004612822565b610837565b6040516101fe9a999897969594939291906128b9565b3480156102c557600080fd5b506102ce6109a6565b6040519081526020016101fe565b3480156102e857600080fd5b506102816102f7366004612936565b6109b6565b34801561030857600080fd5b50610281610317366004612822565b6109e7565b6102ce61032a366004612a00565b610b06565b34801561033b57600080fd5b5061028161034a366004612936565b610e60565b34801561035b57600080fd5b506102ce61036a366004612857565b610e7b565b34801561037b57600080fd5b506102ce61038a366004612ac4565b600c6020526000908152604090205481565b3480156103a857600080fd5b506102ce6103b7366004612822565b600d6020526000908152604090205481565b3480156103d557600080fd5b506102ce606481565b3480156103ea57600080fd5b506102816103f9366004612adf565b610eac565b34801561040a57600080fd5b50610249610419366004612822565b611385565b34801561042a57600080fd5b50610281610439366004612822565b6113e5565b34801561044a57600080fd5b506102ce610459366004612ac4565b6114fc565b34801561046a57600080fd5b5061047e610479366004612b32565b611582565b6040516101fe9493929190612b54565b34801561049a57600080fd5b5061021c61167c565b3480156104af57600080fd5b506104e66104be366004612ac4565b6001600160a01b03166000908152600c6020908152604080832054600b909252909120549091565b604080519283526020830191909152016101fe565b34801561050757600080fd5b50610281610516366004612822565b61168b565b34801561052757600080fd5b50610281610536366004612b85565b611820565b34801561054757600080fd5b50610281610556366004612bd7565b61182f565b34801561056757600080fd5b5061057b610576366004612822565b611861565b6040516101fe9796959493929190612cb3565b34801561059a57600080fd5b5061021c6105a9366004612822565b6119ed565b3480156105ba57600080fd5b506101f26105c9366004612d19565b611afd565b3480156105da57600080fd5b506102ce6202a30081565b3480156105f157600080fd5b50610281610600366004612822565b611b2b565b34801561061157600080fd5b506102497f000000000000000000000000000000000000000000000000000000000000000081565b60006001600160e01b03198216632483248360e11b148061065e575061065e82611d24565b92915050565b60606000805461067390612d4c565b80601f016020809104026020016040519081016040528092919081815260200182805461069f90612d4c565b80156106ec5780601f106106c1576101008083540402835291602001916106ec565b820191906000526020600020905b8154815290600101906020018083116106cf57829003601f168201915b5050505050905090565b600061070182611d74565b506000908152600460205260409020546001600160a01b031690565b600061072882611385565b9050806001600160a01b0316836001600160a01b03160361079a5760405162461bcd60e51b815260206004820152602160248201527f4552433732313a20617070726f76616c20746f2063757272656e74206f776e656044820152603960f91b60648201526084015b60405180910390fd5b336001600160a01b03821614806107b657506107b68133611afd565b6108285760405162461bcd60e51b815260206004820152603d60248201527f4552433732313a20617070726f76652063616c6c6572206973206e6f7420746f60448201527f6b656e206f776e6572206f7220617070726f76656420666f7220616c6c0000006064820152608401610791565b6108328383611dd3565b505050565b600a60205260009081526040902080546001820154600283015460038401805493946001600160a01b0393841694939092169261087390612d4c565b80601f016020809104026020016040519081016040528092919081815260200182805461089f90612d4c565b80156108ec5780601f106108c1576101008083540402835291602001916108ec565b820191906000526020600020905b8154815290600101906020018083116108cf57829003601f168201915b50505050509080600401805461090190612d4c565b80601f016020809104026020016040519081016040528092919081815260200182805461092d90612d4c565b801561097a5780601f1061094f5761010080835404028352916020019161097a565b820191906000526020600020905b81548152906001019060200180831161095d57829003601f168201915b50505060058401546006850154600786015460088701546009909701549596929591945060ff1692508a565b60006109b160085490565b905090565b6109c03382611e41565b6109dc5760405162461bcd60e51b815260040161079190612d86565b610832838383611e9f565b6000818152600a6020526040902060018101546001600160a01b0316331480610a1c575060028101546001600160a01b031633145b610a565760405162461bcd60e51b815260206004820152600b60248201526a4e6f74206120706172747960a81b6044820152606401610791565b6001600782015460ff166004811115610a7157610a71612881565b14610ab45760405162461bcd60e51b81526020600482015260136024820152724a6f62206e6f7420696e2070726f677265737360681b6044820152606401610791565b60078101805460ff19166003179055610ad06202a30042612de9565b6009820155604051339083907f44f3c3ed15c708331582bc379d28659a58f183a563abe41aa4c8889db469f71c90600090a35050565b6000803411610b4c5760405162461bcd60e51b81526020600482015260126024820152714d757374206465706f7369742066756e647360701b6044820152606401610791565b838214610b9b5760405162461bcd60e51b815260206004820152601960248201527f4d696c6573746f6e65206c656e677468206d69736d61746368000000000000006044820152606401610791565b8315801590610bab5750600a8411155b610be95760405162461bcd60e51b815260206004820152600f60248201526e312d3130206d696c6573746f6e657360881b6044820152606401610791565b6000805b83811015610c2d57848482818110610c0757610c07612dfc565b9050602002013582610c199190612de9565b915080610c2581612e12565b915050610bed565b50348114610c7d5760405162461bcd60e51b815260206004820152601a60248201527f416d6f756e7473206d75737420657175616c206465706f7369740000000000006044820152606401610791565b6008549150610c90600880546001019055565b6000828152600a602052604090208281556001810180546001600160a01b0319163317905560038101610cc48b8d83612e79565b5060048101610cd4898b83612e79565b503460058201819055600682015560078101805460ff1916905542600882015560005b86811015610e0b5781600a0160405180608001604052808a8a85818110610d2057610d20612dfc565b9050602002810190610d329190612f3a565b8080601f016020809104026020016040519081016040528093929190818152602001838380828437600092019190915250505090825250602001888885818110610d7e57610d7e612dfc565b6020908102929092013583525060008282018190526040909201829052835460018101855593825290208151919260030201908190610dbd9082612f81565b506020820151600182015560408201516002909101805460609093015115156101000261ff00199215159290921661ffff199093169290921717905580610e0381612e12565b915050610cf7565b50336001600160a01b0316837fe2664ff85acbefce4793e83fe4a10e88680b3172a3e401c7946d7cfb8f19ebdb8d8d34604051610e4a93929190613041565b60405180910390a3505098975050505050505050565b6108328383836040518060200160405280600081525061182f565b600b6020528160005260406000208181548110610e9757600080fd5b90600052602060002001600091509150505481565b610eb4612003565b6000848152600a6020526040902060018101546001600160a01b03163314610f0c5760405162461bcd60e51b815260206004820152600b60248201526a13db9b1e4818db1a595b9d60aa1b6044820152606401610791565b6001600782015460ff166004811115610f2757610f27612881565b14610f6a5760405162461bcd60e51b81526020600482015260136024820152724a6f62206e6f7420696e2070726f677265737360681b6044820152606401610791565b600a8101548410610fb15760405162461bcd60e51b8152602060048201526011602482015270496e76616c6964206d696c6573746f6e6560781b6044820152606401610791565b600081600a018581548110610fc857610fc8612dfc565b60009182526020909120600390910201600281015490915060ff16156110235760405162461bcd60e51b815260206004820152601060248201526f105b1c9958591e48185c1c1c9bdd995960821b6044820152606401610791565b60028101805461ffff191661010117905560018101546000906127109061104c9060649061307a565b6110569190613091565b9050600081836001015461106a91906130b3565b60028501546001600160a01b03166000908152600c602052604081208054929350839290919061109b908490612de9565b909155505060028401546040516000916001600160a01b03169083908381818185875af1925050503d80600081146110ef576040519150601f19603f3d011682016040523d82523d6000602084013e6110f4565b606091505b50509050806111365760405162461bcd60e51b815260206004820152600e60248201526d14185e5b595b9d0819985a5b195960921b6044820152606401610791565b82156111f75760007f00000000000000000000000000000000000000000000000000000000000000006001600160a01b03168460405160006040518083038185875af1925050503d80600081146111a9576040519150601f19603f3d011682016040523d82523d6000602084013e6111ae565b606091505b50509050806111f55760405162461bcd60e51b8152602060048201526013602482015272119959481d1c985b9cd9995c8819985a5b1959606a1b6044820152606401610791565b505b887f6e3fd8bb18eed6833ae758e07c361bf145ce27c88bdf6d5029ddabf188d72ca6898660010154604051611236929190918252602082015260400190565b60405180910390a260028501546040518381526001600160a01b03909116908a907f6e3c6096795c8298a218b2cfb8bde42726ff7c9a3d27b4d3ba41ab7f74feb5fb9060200160405180910390a3600160005b600a8701548110156112e05786600a0181815481106112aa576112aa612dfc565b600091825260209091206002600390920201015460ff166112ce57600091506112e0565b806112d881612e12565b915050611289565b50801561136f5760078601805460ff19166002908117909155860180546001600160a01b039081166000908152600b602090815260408083208054600181018255908452928290209092018e905592548151601f8c018590048502810185019092528a825261136f939216918d91908c908c908190840183828082843760009201919091525061205c92505050565b50505050505061137f6001600755565b50505050565b6000818152600260205260408120546001600160a01b03168061065e5760405162461bcd60e51b8152602060048201526018602482015277115490cdcc8c4e881a5b9d985b1a59081d1bdad95b88125160421b6044820152606401610791565b6000818152600a6020526040812090600782015460ff16600481111561140d5761140d612881565b146114495760405162461bcd60e51b815260206004820152600c60248201526b2537b1103737ba1037b832b760a11b6044820152606401610791565b6001810154336001600160a01b03909116036114a75760405162461bcd60e51b815260206004820152601b60248201527f436c69656e742063616e6e6f7420626520667265656c616e63657200000000006044820152606401610791565b6002810180546001600160a01b0319163390811790915560078201805460ff1916600117905560405183907f8725bffe8d13528e1bab35c1d9aa412f46d228a07bef71d732e5fe603f9abc0590600090a35050565b60006001600160a01b0382166115665760405162461bcd60e51b815260206004820152602960248201527f4552433732313a2061646472657373207a65726f206973206e6f7420612076616044820152683634b21037bbb732b960b91b6064820152608401610791565b506001600160a01b031660009081526003602052604090205490565b6060600080600080600a6000888152602001908152602001600020600a0186815481106115b1576115b1612dfc565b60009182526020909120600390910201600181015460028201548254929350839260ff808316926101009004169084906115ea90612d4c565b80601f016020809104026020016040519081016040528092919081815260200182805461161690612d4c565b80156116635780601f1061163857610100808354040283529160200191611663565b820191906000526020600020905b81548152906001019060200180831161164657829003601f168201915b5050505050935094509450945094505092959194509250565b60606001805461067390612d4c565b611693612003565b6000818152600a6020526040902060018101546001600160a01b031633146116eb5760405162461bcd60e51b815260206004820152600b60248201526a13db9b1e4818db1a595b9d60aa1b6044820152606401610791565b6000600782015460ff16600481111561170657611706612881565b1461173e5760405162461bcd60e51b81526020600482015260086024820152672737ba1037b832b760c11b6044820152606401610791565b60078101805460ff19166004179055600181015460068201546040516000926001600160a01b031691908381818185875af1925050503d80600081146117a0576040519150601f19603f3d011682016040523d82523d6000602084013e6117a5565b606091505b50509050806117e65760405162461bcd60e51b815260206004820152600d60248201526c1499599d5b990819985a5b1959609a1b6044820152606401610791565b60405183907f58243f872c550ad02802199ade99eb4250f6bb19e9abbf2d3de7b969c0eb5e4f90600090a2505061181d6001600755565b50565b61182b338383612108565b5050565b6118393383611e41565b6118555760405162461bcd60e51b815260040161079190612d86565b61137f848484846121d6565b6000818152600a602081905260408220600181015460028201546005830154600784015494840154600385018054889760609788978a978897889793966001600160a01b0393841696939092169491936004880193919260ff169185906118c790612d4c565b80601f01602080910402602001604051908101604052809291908181526020018280546118f390612d4c565b80156119405780601f1061191557610100808354040283529160200191611940565b820191906000526020600020905b81548152906001019060200180831161192357829003601f168201915b5050505050945083805461195390612d4c565b80601f016020809104026020016040519081016040528092919081815260200182805461197f90612d4c565b80156119cc5780601f106119a1576101008083540402835291602001916119cc565b820191906000526020600020905b8154815290600101906020018083116119af57829003601f168201915b50505050509350975097509750975097509750975050919395979092949650565b60606119f882611d74565b60008281526006602052604081208054611a1190612d4c565b80601f0160208091040260200160405190810160405280929190818152602001828054611a3d90612d4c565b8015611a8a5780601f10611a5f57610100808354040283529160200191611a8a565b820191906000526020600020905b815481529060010190602001808311611a6d57829003601f168201915b505050505090506000611aa860408051602081019091526000815290565b90508051600003611aba575092915050565b815115611aec578082604051602001611ad49291906130c6565b60405160208183030381529060405292505050919050565b611af584612209565b949350505050565b6001600160a01b03918216600090815260056020908152604080832093909416825291909152205460ff1690565b611b33612003565b6000818152600a602052604090206003600782015460ff166004811115611b5c57611b5c612881565b14611b985760405162461bcd60e51b815260206004820152600c60248201526b139bdd08191a5cdc1d5d195960a21b6044820152606401610791565b8060090154421015611be15760405162461bcd60e51b815260206004820152601260248201527115da5b991bddc81b9bdd08195e1c1a5c995960721b6044820152606401610791565b60078101805460ff1916600417905560068101546000904710611c08578160060154611c0a565b475b90508015611ca95760018201546040516000916001600160a01b03169083908381818185875af1925050503d8060008114611c61576040519150601f19603f3d011682016040523d82523d6000602084013e611c66565b606091505b5050905080611ca75760405162461bcd60e51b815260206004820152600d60248201526c1499599d5b990819985a5b1959609a1b6044820152606401610791565b505b60018201546040516001600160a01b03909116815283907ff77ceb5e091d2da041bc760667f9d5fe7a756949eaf29250ad0e60ca6f4c27d99060200160405180910390a260405183907f58243f872c550ad02802199ade99eb4250f6bb19e9abbf2d3de7b969c0eb5e4f90600090a2505061181d6001600755565b60006001600160e01b031982166380ac58cd60e01b1480611d5557506001600160e01b03198216635b5e139f60e01b145b8061065e57506301ffc9a760e01b6001600160e01b031983161461065e565b6000818152600260205260409020546001600160a01b031661181d5760405162461bcd60e51b8152602060048201526018602482015277115490cdcc8c4e881a5b9d985b1a59081d1bdad95b88125160421b6044820152606401610791565b600081815260046020526040902080546001600160a01b0319166001600160a01b0384169081179091558190611e0882611385565b6001600160a01b03167f8c5be1e5ebec7d5bd14f71427d1e84f3dd0314c0f7b2291e5b200ac8c7c3b92560405160405180910390a45050565b600080611e4d83611385565b9050806001600160a01b0316846001600160a01b03161480611e745750611e748185611afd565b80611af55750836001600160a01b0316611e8d846106f6565b6001600160a01b031614949350505050565b826001600160a01b0316611eb282611385565b6001600160a01b031614611ed85760405162461bcd60e51b8152600401610791906130f5565b6001600160a01b038216611f3a5760405162461bcd60e51b8152602060048201526024808201527f4552433732313a207472616e7366657220746f20746865207a65726f206164646044820152637265737360e01b6064820152608401610791565b826001600160a01b0316611f4d82611385565b6001600160a01b031614611f735760405162461bcd60e51b8152600401610791906130f5565b600081815260046020908152604080832080546001600160a01b03199081169091556001600160a01b0387811680865260038552838620805460001901905590871680865283862080546001019055868652600290945282852080549092168417909155905184937fddf252ad1be2c89b69c2b068fc378daa952ba7f163c4a11628f55a4df523b3ef91a4505050565b6002600754036120555760405162461bcd60e51b815260206004820152601f60248201527f5265656e7472616e637947756172643a207265656e7472616e742063616c6c006044820152606401610791565b6002600755565b600061206760095490565b9050612077600980546001019055565b612081848261227d565b6120aa8183604051602001612096919061313a565b604051602081830303815290604052612297565b6000818152600d602052604090819020849055516001600160a01b03851690849083907fcd91ac3dd619eb068df719b679dd561af3249c05e46d2ff35c4ecdd0f206e46c906120fa90879061280f565b60405180910390a450505050565b816001600160a01b0316836001600160a01b0316036121695760405162461bcd60e51b815260206004820152601960248201527f4552433732313a20617070726f766520746f2063616c6c6572000000000000006044820152606401610791565b6001600160a01b03838116600081815260056020908152604080832094871680845294825291829020805460ff191686151590811790915591519182527f17307eab39ab6107e8899845ad3d59bd9653f200f220920489ca2b5937696c31910160405180910390a3505050565b6121e1848484611e9f565b6121ed84848484612362565b61137f5760405162461bcd60e51b815260040161079190613169565b606061221482611d74565b600061222b60408051602081019091526000815290565b9050600081511161224b5760405180602001604052806000815250612276565b8061225584612463565b6040516020016122669291906130c6565b6040516020818303038152906040525b9392505050565b61182b8282604051806020016040528060008152506124f6565b6000828152600260205260409020546001600160a01b03166123125760405162461bcd60e51b815260206004820152602e60248201527f45524337323155524953746f726167653a2055524920736574206f66206e6f6e60448201526d32bc34b9ba32b73a103a37b5b2b760911b6064820152608401610791565b600082815260066020526040902061232a8282612f81565b506040518281527ff8e1a15aba9398e019f0b49df1a4fde98ee17ae345cb5f6b5e2c27f5033e8ce79060200160405180910390a15050565b60006001600160a01b0384163b1561245857604051630a85bd0160e11b81526001600160a01b0385169063150b7a02906123a69033908990889088906004016131bb565b6020604051808303816000875af19250505080156123e1575060408051601f3d908101601f191682019092526123de918101906131f8565b60015b61243e573d80801561240f576040519150601f19603f3d011682016040523d82523d6000602084013e612414565b606091505b5080516000036124365760405162461bcd60e51b815260040161079190613169565b805181602001fd5b6001600160e01b031916630a85bd0160e11b149050611af5565b506001949350505050565b6060600061247083612529565b600101905060008167ffffffffffffffff81111561249057612490612bc1565b6040519080825280601f01601f1916602001820160405280156124ba576020820181803683370190505b5090508181016020015b600019016f181899199a1a9b1b9c1cb0b131b232b360811b600a86061a8153600a85049450846124c457509392505050565b6125008383612601565b61250d6000848484612362565b6108325760405162461bcd60e51b815260040161079190613169565b60008072184f03e93ff9f4daa797ed6e38ed64bf6a1f0160401b83106125685772184f03e93ff9f4daa797ed6e38ed64bf6a1f0160401b830492506040015b6d04ee2d6d415b85acef81000000008310612594576d04ee2d6d415b85acef8100000000830492506020015b662386f26fc1000083106125b257662386f26fc10000830492506010015b6305f5e10083106125ca576305f5e100830492506008015b61271083106125de57612710830492506004015b606483106125f0576064830492506002015b600a831061065e5760010192915050565b6001600160a01b0382166126575760405162461bcd60e51b815260206004820181905260248201527f4552433732313a206d696e7420746f20746865207a65726f20616464726573736044820152606401610791565b6000818152600260205260409020546001600160a01b0316156126bc5760405162461bcd60e51b815260206004820152601c60248201527f4552433732313a20746f6b656e20616c7265616479206d696e746564000000006044820152606401610791565b6000818152600260205260409020546001600160a01b0316156127215760405162461bcd60e51b815260206004820152601c60248201527f4552433732313a20746f6b656e20616c7265616479206d696e746564000000006044820152606401610791565b6001600160a01b038216600081815260036020908152604080832080546001019055848352600290915280822080546001600160a01b0319168417905551839291907fddf252ad1be2c89b69c2b068fc378daa952ba7f163c4a11628f55a4df523b3ef908290a45050565b6001600160e01b03198116811461181d57600080fd5b6000602082840312156127b457600080fd5b81356122768161278c565b60005b838110156127da5781810151838201526020016127c2565b50506000910152565b600081518084526127fb8160208601602086016127bf565b601f01601f19169290920160200192915050565b60208152600061227660208301846127e3565b60006020828403121561283457600080fd5b5035919050565b80356001600160a01b038116811461285257600080fd5b919050565b6000806040838503121561286a57600080fd5b6128738361283b565b946020939093013593505050565b634e487b7160e01b600052602160045260246000fd5b600581106128b557634e487b7160e01b600052602160045260246000fd5b9052565b8a81526001600160a01b038a8116602083015289166040820152610140606082018190526000906128ec8382018b6127e3565b90508281036080840152612900818a6127e3565b9150508660a08301528560c083015261291c60e0830186612897565b610100820193909352610120015298975050505050505050565b60008060006060848603121561294b57600080fd5b6129548461283b565b92506129626020850161283b565b9150604084013590509250925092565b60008083601f84011261298457600080fd5b50813567ffffffffffffffff81111561299c57600080fd5b6020830191508360208285010111156129b457600080fd5b9250929050565b60008083601f8401126129cd57600080fd5b50813567ffffffffffffffff8111156129e557600080fd5b6020830191508360208260051b85010111156129b457600080fd5b6000806000806000806000806080898b031215612a1c57600080fd5b883567ffffffffffffffff80821115612a3457600080fd5b612a408c838d01612972565b909a50985060208b0135915080821115612a5957600080fd5b612a658c838d01612972565b909850965060408b0135915080821115612a7e57600080fd5b612a8a8c838d016129bb565b909650945060608b0135915080821115612aa357600080fd5b50612ab08b828c016129bb565b999c989b5096995094979396929594505050565b600060208284031215612ad657600080fd5b6122768261283b565b60008060008060608587031215612af557600080fd5b8435935060208501359250604085013567ffffffffffffffff811115612b1a57600080fd5b612b2687828801612972565b95989497509550505050565b60008060408385031215612b4557600080fd5b50508035926020909101359150565b608081526000612b6760808301876127e3565b60208301959095525091151560408301521515606090910152919050565b60008060408385031215612b9857600080fd5b612ba18361283b565b915060208301358015158114612bb657600080fd5b809150509250929050565b634e487b7160e01b600052604160045260246000fd5b60008060008060808587031215612bed57600080fd5b612bf68561283b565b9350612c046020860161283b565b925060408501359150606085013567ffffffffffffffff80821115612c2857600080fd5b818701915087601f830112612c3c57600080fd5b813581811115612c4e57612c4e612bc1565b604051601f8201601f19908116603f01168101908382118183101715612c7657612c76612bc1565b816040528281528a6020848701011115612c8f57600080fd5b82602086016020830137600060208483010152809550505050505092959194509250565b6001600160a01b0388811682528716602082015260e060408201819052600090612cdf908301886127e3565b8281036060840152612cf181886127e3565b915050846080830152612d0760a0830185612897565b8260c083015298975050505050505050565b60008060408385031215612d2c57600080fd5b612d358361283b565b9150612d436020840161283b565b90509250929050565b600181811c90821680612d6057607f821691505b602082108103612d8057634e487b7160e01b600052602260045260246000fd5b50919050565b6020808252602d908201527f4552433732313a2063616c6c6572206973206e6f7420746f6b656e206f776e6560408201526c1c881bdc88185c1c1c9bdd9959609a1b606082015260800190565b634e487b7160e01b600052601160045260246000fd5b8082018082111561065e5761065e612dd3565b634e487b7160e01b600052603260045260246000fd5b600060018201612e2457612e24612dd3565b5060010190565b601f82111561083257600081815260208120601f850160051c81016020861015612e525750805b601f850160051c820191505b81811015612e7157828155600101612e5e565b505050505050565b67ffffffffffffffff831115612e9157612e91612bc1565b612ea583612e9f8354612d4c565b83612e2b565b6000601f841160018114612ed95760008515612ec15750838201355b600019600387901b1c1916600186901b178355612f33565b600083815260209020601f19861690835b82811015612f0a5786850135825560209485019460019092019101612eea565b5086821015612f275760001960f88860031b161c19848701351681555b505060018560011b0183555b5050505050565b6000808335601e19843603018112612f5157600080fd5b83018035915067ffffffffffffffff821115612f6c57600080fd5b6020019150368190038213156129b457600080fd5b815167ffffffffffffffff811115612f9b57612f9b612bc1565b612faf81612fa98454612d4c565b84612e2b565b602080601f831160018114612fe45760008415612fcc5750858301515b600019600386901b1c1916600185901b178555612e71565b600085815260208120601f198616915b8281101561301357888601518255948401946001909101908401612ff4565b50858210156130315787850151600019600388901b60f8161c191681555b5050505050600190811b01905550565b604081528260408201528284606083013760006060848301015260006060601f19601f8601168301019050826020830152949350505050565b808202811582820484141761065e5761065e612dd3565b6000826130ae57634e487b7160e01b600052601260045260246000fd5b500490565b8181038181111561065e5761065e612dd3565b600083516130d88184602088016127bf565b8351908301906130ec8183602088016127bf565b01949350505050565b60208082526025908201527f4552433732313a207472616e736665722066726f6d20696e636f72726563742060408201526437bbb732b960d91b606082015260800190565b66697066733a2f2f60c81b81526000825161315c8160078501602087016127bf565b9190910160070192915050565b60208082526032908201527f4552433732313a207472616e7366657220746f206e6f6e20455243373231526560408201527131b2b4bb32b91034b6b83632b6b2b73a32b960711b606082015260800190565b6001600160a01b03858116825284166020820152604081018390526080606082018190526000906131ee908301846127e3565b9695505050505050565b60006020828403121561320a57600080fd5b81516122768161278c56fea26469706673582212201be8fa27c30f1facb543dc7dc9e1a3d27eee06291cceb50ab45c261f61a8da4a64736f6c63430008140033",
  "linkReferences": {},
  "deployedLinkReferences": {}
}